:020000022000DC
:10700000000004206D1E0300A51E0300B90103004B
:10701000A91E0300C5010300CB010300000000000E
:10702000000000000000000000000000D9A90200DC
:10703000B11E03000000000073AA020083AA020030
:10704000E1600300BDCE0200B71E0300B71E0300BF
:10705000B71E0300B71E0300B71E0300B71E0300D0
:10706000B71E0300B71E0300B71E0300B71E0300C0
:10707000B71E030075620300B71E0300D5CE0200E1
:10708000B71E0300B71E0300B71E0300B71E0300A0
:10709000B71E0300B71E0300B71E0300B71E030090
:1070A000B71E0300B71E0300B71E0300B71E030080
:1070B000B71E0300B71E0300000000000000000020
:1070C000B71E0300B71E0300B71E0300B71E030060
:1070D000B71E0300B71E0300B71E0300B71E030050
:1070E000B71E0300B71E0300B71E03000000000018
:1070F00000000000B71E030000000000B71E0300E0
:1071000010B5054C237833B9044B13B10448AFF3E1
:1071100000800123237010BD386E002000000000A5
:1071200054F6030008B5034B1BB103490348AFF302
:10713000008008BD000000003C6E002054F60300F3
:10714000154B002B08BF134B9D46A3F5803A002139
:107150008B460F461348144A121A12F079FC0F4B53
:10716000002B00D098470E4B002B00D098470020F2
:10717000002104000D000D48002802D00C4809F041
:10718000B3FD11F077FF2000290005F0CDFC09F0D8
:10719000A8FD00BF0000080000000420000000005F
:1071A00085CA0200386E0020B8160120E90C0300E1
:1071B0000000000070B5064E064D0024315D01222E
:1071C0002846013400F061FC062CF7D170BD00BFE9
:1071D00078D00300886E00202DE9F04F2DED028B52
:1071E00099B003F0ABFA0024DFF82882DFF828A278
:1071F000DFF82892DFF828B207462646FFF7DAFFC5
:10720000002218F8011F484600F03FFC322003F02E
:10721000A9FA0025704B4846595D00F010FC0BEBB5
:107220000501B0FA80F00A5D4009824218BF4AF8B1
:1072300025704FEA850218BF08555AF80220BA1A7D
:10724000042A07D9654A095D2A44105D88421CBF9B
:10725000115501260135082DDCD10834302C0AF1F6
:10726000200ACBD1FFF7A6FF002E4ED000235C4EA4
:107270005A4F0593ADF818301A46184606EB4304EA
:1072800000217D18ED5C9DB104EB410C14F8115008
:107290009CF801C040EA0C0055B1052A08D80DF150
:1072A000600E02F1010C724402F84C5C5FFA8CF241
:1072B00001310829E5D10833302BDFD101238DF8C6
:1072C000203000238DF822309DF814308DF82330C3
:1072D0009DF815308DF824309DF816308DF8253046
:1072E0009DF817308DF826309DF818308DF827302E
:1072F00018A99DF819308DF8283009238DF8210040
:1073000041F8443D374801F031FA03F017FA364BA3
:107310001A68904254D300F5EA40303018600C20CF
:1073200003F08EFA002003F04FFA07EE900AB8EE51
:10733000E77ADFED2E7ADFED2E6AC7EE278ADFEDE2
:107340002D7A9FED2D7A68EEA78A68EE878A9FEDE9
:107350002B7A78EEE77A67EE877A87EEA68AB5EE23
:10736000C08AF1EE10FA33D4B4EE478AF1EE10FA87
:10737000C8BFB0EE478A2249224803F0B8F8F6EEBB
:10738000007A38EE278A0A22FCEEC87A1D48CDED35
:10739000037A9DF80C1003F0EBF81B49194803F031
:1073A000A6F818EE900A10F097FB0223009302460D
:1073B0000B46144803F098F91449124803F0A4F856
:1073C000022003F0CDF919B0BDEC028BBDE8F08FBF
:1073D0009FED0F8ACFE700BF70D00300546E0020EE
:1073E00010D00300986E0020846E002000F07F45CE
:1073F0006466663F333353408195B33F0000C84213
:107400007ED003002878002088D003008CD00300B1
:107410000000000077D0030030700020886E00204C
:107420000070002013B50A4C0A4800F097FA0121B9
:107430000091502341F23522204601F001FB064A1B
:107440000649204602B0BDE8104009F048BC00BF24
:10745000986E0020886E002000600020A98902003C
:1074600070B54FF4E1312A4801F056FC962003F044
:1074700077F90121084603F013FA0021012003F0F7
:1074800051FA244800F0B8F8224A2348202100F09D
:107490006BFA98B921491E4803F036F801210846D5
:1074A00003F040FA502003F05BF90021012003F0C3
:1074B00039FA4FF4667003F053F9EFE7184E164DA2
:1074C0000024315D02222846013400F06FFA082CB6
:1074D000F7D1144E104D0024315D012228460134AD
:1074E00000F064FA062CF7D1FFF764FE012108468C
:1074F00003F018FA282003F033F90021012003F0EB
:1075000011FA09490248BDE8704002F0FDBF00BF12
:1075100028780020F0700020886E00208FD00300B3
:1075200070D0030078D00300ABD003000020704778
:1075300070470368C9B21B68184749000023C1613E
:10754000C0F82C327047036801211B6B184710B438
:1075500003689C6B0123A4465DF8044B6047D0F898
:107560002C32B3F5807F1FBF5A1CC0F82C22C018E4
:1075700080F82C1114BF012000207047D0F828019A
:1075800070477047C0F830127047C0F83412704727
:107590000346D0F82801A8B1D3F8282182B1D3F846
:1075A00024211A4492F82000D3F824210132D2B2C7
:1075B000C3F82421D3F82821013AC3F828217047C1
:1075C0004FF0FF307047D0F828312BB1D0F824317C
:1075D000184490F8200070474FF0FF3070470000CB
:1075E00010B5044B0360044600F50E700AF0E6F88F
:1075F000204610BDF0D0030038B50446A82009F09D
:107600007DFD94F9192094F91810054605F05AFEED
:10761000656138BD7FB5044648200E4609F06EFD11
:1076200094F9192094F91810054605F085FE7100AB
:107630002846256105F09CFE094B0393094B0193F5
:107640006946002304F50E70029300940AF024F8B2
:10765000039B13B19B686846984704B070BD00BF98
:10766000D0D00300A57702000B6803604B6843602D
:107670008B688360704738B5D0F82C3214461A44B2
:10768000B2F5807F88BFC3F58074054600F596701B
:107690002246184412F0DEF8D5F82C322344C5F8FF
:1076A0002C32204638BD38B5044640690D4608B135
:1076B00005F02CFD206920B12946BDE8384005F0D1
:1076C00055BE38BD38B50446406910B10368DB6863
:1076D000984723696BB104F50E7528460AF04CF8FB
:1076E00028460AF093F820694821BDE8384009F09F
:1076F0001BBD38BD1FB50246D0F82C32D469406995
:1077000081F0010100913BB9012303AA214605F054
:107710002EFDC0B204B010BD02F59672214605F0F0
:1077200007FD002814BF02200020F3E770B5C2B0A7
:1077300083F00103009302AE044615461346490048
:107740003246406905F013FDC8B9A84218D0D4F8F4
:107750002831B3F5807F10D0D4F82031325C234437
:1077600083F82020D4F820310133DBB2C4F8203173
:10777000D4F828310133C4F828310130E5E7002579
:10778000284642B070BD10B4D0E9013401686210DF
:10779000E40701EB020048BF8A585DF8044B48BF7C
:1077A000D358184730B50446BDB00025206905F010
:1077B000E6FD0328FAD8DFE800F04C021414D4F8F0
:1077C000343203B19847D4F82C2232B104F59671C3
:1077D000206905F0D8FDC4F82C52206905F0DBFDC6
:1077E000E4E7C4F82051F022C4F824516946C4F8F3
:1077F0002851206905F0C5FD002282421DDAD4F827
:107800002831B3F5807F18D0D4F82831B3F5807FC4
:1078100011D0D4F820311DF80210234483F8201031
:10782000D4F820310133DBB2C4F82031D4F8283148
:107830000133C4F828310132DFE7D4F82831002BB6
:10784000B4DDD4F83032002BB0D0D4F828019847FA
:10785000ACE702F097FFA9E710B5044601F079F90B
:1078600084423BBF2401024B4FF0FF30185710BD3C
:107870004860002073B54FF47A730025C0E90153C6
:107880001A4B03600446C0E9045501764276294646
:107890004FF48072203012F0DBF8154BC4F8205101
:1078A000C4F838322946C4F82451C4F82C52C4F81C
:1078B0002851C4F83052C4F83452C4F8485204F580
:1078C0001E7009F041FE04F5237009F0DBFD04F59C
:1078D0000E76084B009330462B464FF40062182179
:1078E00009F0CEFE204602B070BD00BFF0D003000C
:1078F00078EE0300DCD00300F8B50420FFF7ACFFFE
:1079000005460520FFF7A8FF104C114E2946114DE2
:1079100002462046FFF7AEFF32462946204609F0D0
:10792000DEF91120FFF798FF07461020FFF794FFBC
:10793000094C024639462046FFF79CFF324629464D
:107940002046BDE8F84009F0CAB900BFF070002039
:1079500000600020E1750200E47300200022C0E90D
:107960000022102202727047F8B5054610200E461C
:10797000174609F0C3FB314604463A4600F0D7F9F2
:107980002C6020460121BDE8F84000F0F3B9037AED
:10799000082B436888BF42EA41012BB1407A41EA93
:1079A000402141F4804189B2084670472DE9F043F7
:1079B000072994BF4FF000094FF0010997B017460F
:1079C0000D464A4600210646FFF7E1FF01244FF02D
:1079D0000008D6E90012CDE900040323CDE90284B2
:1079E00008A800F079F84A4606213046FFF7CFFF95
:1079F00005F00705D6E90012CDE90004CDE90284BF
:107A000003230FA800F068F82B46224608A904A813
:107A100000F044F92B4622460FA906A800F03EF9D3
:107A2000391B18BF012104A800F04AF9BB1E5942B6
:107A3000594106A800F044F917B0BDE8F08370B5CD
:107A400007298EB094BF002201220D460921064667
:107A5000FFF79DFF01240023D6E90012CDE902348F
:107A6000CDE90004032307A800F036F805F007036A
:107A7000224607A905A800F011F905A800F013F99E
:107A8000003018BF01200EB070BDF0B507298FB0CF
:107A900017460D4694BF0022012209210646FFF732
:107AA00076FF01240023D6E90012CDE90234CDE9A6
:107AB0000004032307A800F00FF805F0070322468F
:107AC00007A905A800F0EAF8391C18BF012105A88C
:107AD00000F0F6F80FB0F0BD30B503739DF8183024
:107AE0004374BDF80C30C3819DF8143083740025B5
:107AF0009DF810308561C0E90012037430BDF0B507
:107B0000C58985B004460068EBB22D0A0E461746BB
:107B10008DF80C308DF80D5040B1637C019303ABB0
:107B20000093012300F036F905B0F0BD606858B34A
:107B300094F80CC0647CBCF1030F0BD125F0010557
:107B400001348DF80D308DF80C50009403AB00F02B
:107B500098FAE9E7BCF1000F08D103F07F038DF834
:107B60000C30009403AB3A463146F0E7BCF1020F0B
:107B700002D163F07F03F2E7BCF1010FF1D103F012
:107B80007F0343F04003EAE7A0680028CCD0627C82
:107B900000970B4603A900F0BBF8C5E730B402B963
:107BA000027C042A14D8816100239A420BDD847C74
:107BB000CDB224B9C418E574090A0133F5E7D41A23
:107BC0000444A574F8E700F1130130BCFFF797BF38
:107BD000002030BC7047F0B5C68985B00546006806
:107BE000F4B2360A0B468DF80C4011468DF80D6044
:107BF00040B10024CDE900146A7C03A900F039F9F2
:107C000005B0F0BD686820B32F7B6A7C032F0DD1CF
:107C10008DF80D40FF24CDE9001446F001068DF8E3
:107C20000C60013203A900F04EFAE9E73FB964F0B5
:107C30007F048DF80C40FF24CDE90014F2E7022FF9
:107C400002D104F07F04F4E7012FF4D164F03F0483
:107C5000EFE7A8680028D3D000916A7C03A900F060
:107C600048F8CDE710B500F11301027C0446FFF798
:107C7000B2FF80B10023217C184699420DDDA27C21
:107C800000022AB9CA1A2244927C10430133F4E755
:107C9000E218D27CF9E74FF0FF3010BD10B501605B
:107CA0000271437110BD10B504460068FFF7DAFF9A
:107CB0002279012393406279013BD040184010BDE6
:107CC00070B5044600680E46FFF7CCFF2179627953
:107CD00001238B40013B03FA02F520EA05053340FE
:107CE0002068934043EA0501027CBDE87040FFF73D
:107CF00055BF30B4047CBDF8085034B1846824B159
:107D00000295A446406930BC6047002030BC7047F3
:107D100030B4047CBDF8085034B1C46824B1029575
:107D2000A446406930BC6047002030BC70474260C8
:107D30000022027220220170C2607047037A10B5DF
:107D400004468BB1606821780368DB6A98476068F5
:107D5000036800219B6C9847606803685B6B9847D9
:107D6000B0FA80F0400910BD012100F003F80028AE
:107D7000E8D1F8E738B5044640680368DB690D468A
:107D800098470120207225B12046BDE83840FFF712
:107D9000D5BF38BD2DE9F843DDE908759846C368BD
:107DA00016462A449A420446894602D90020BDE874
:107DB000F883406821780368DB6A984785B9606872
:107DC000036832465B68494698478642EED1606850
:107DD000036841461B6B9847B0FA80F04009E6E71C
:107DE000002FECD0606803682A465B6839469847E4
:107DF000A842DBD1E3E72DE9F0410446406816468E
:107E000002688846956B2178F2B2A84786420CD169
:107E10000025AFB2BE4205F1010509D960680368CB
:107E20005B69984708F80700F3E70020BDE8F08198
:107E30000120FBE72DE9F843074688461646994698
:107E40000025B54212D2FB68741B9C4228BF1C4619
:107E5000331BAB4294BF4B460023224608EB05017F
:107E60003846FFF7C8FF10B12544EAE70120BDE816
:107E7000F883F7B500241E46CDE900449DF8243070
:107E8000089F0546FFF786FF40B101233A46314679
:107E9000284603B0BDE8F040FFF7CCBF03B0F0BD0B
:107EA0002DE9F74F044600680F46134628B10368D2
:107EB0001B6903B0BDE8F04F1847227B504D002AE4
:107EC0000CBF0122802200920A780099FB1811420F
:107ED00008BF4FF0010AA2680193B5FBF2F518BF85
:107EE0004FF0000AEDB2019BBB4200F0858097F88D
:107EF00000B0009E4FF0000815B1284602F032FC99
:107F0000637B13F0FD0F38D194F91000421C32D07E
:107F10001BEA060F14BF4FF001094FF00009D145CD
:107F200003D04946C0B202F0FDFC0121E07B02F023
:107F3000F9FC15B1284602F015FC94F91100431C18
:107F400005D0C0B202F01EFD08B146EA08080021C3
:107F5000E07B02F0E7FCCA46237B002B4AD1760087
:107F6000F6B2002EC8D194F91130013318BF87F84A
:107F700000800137B7E7D146D7E7032B24D194F926
:107F80001000411C04D00BEA0601C0B202F0CAFC8A
:107F90000021E07B02F0C6FC15B1284602F0E2FBAE
:107FA0000121E07B02F0BEFC15B1284602F0DAFBAD
:107FB00094F91100431CCFD0C0B202F0E3FC0028BA
:107FC000CAD046EA0808C7E70121E07B02F0AAFC14
:107FD00015B1284602F0C6FB94F91000421C04D0EB
:107FE0000BEA0601C0B202F09DFC0021E07B02F02A
:107FF00099FCDDE77608B4E703B0BDE8F08F00BF79
:1080000020A1070007B502AB012203F8011D1946A4
:10801000FFF746FF9DF8070003B05DF804FB036817
:1080200010B443B119684268CC69184606CA2346A1
:108030005DF8044B18475DF8044B7047006810B1B9
:1080400003681B6A1847704790F90E00431C03D061
:10805000C9B2C0B202F066BC704710B50446FFF763
:10806000DEFF20460021BDE81040FFF7EDBF10B550
:1080700001210446FFF7E8FF2046BDE81040FFF766
:10808000DDBF2DE9F0411D4606460C461746FFF7B9
:10809000E4FF069B05EB0308454508D12744BC4295
:1080A0000BD014F8011B3046FFF7ACFFF7E715F8CB
:1080B000011B3046FFF7A6FFEEE73046FFF7D7FF7C
:1080C0000120BDE8F0812DE9F0410D4690460646BD
:1080D0001C469DF81C70FFF7C0FFA84445450AD117
:1080E000069BE518AC420CD039463046FFF78AFFB4
:1080F00004F8010BF6E715F8011B3046FFF782FF85
:10810000ECE73046FFF7B3FF0120BDE8F08110B582
:1081100086B0C3688DF80F101868012203680092BA
:10812000DC680DF10F010DF11703A0479DF8170052
:1081300006B010BDF8B5427A036804460E46CFB2C9
:108140009B680D0A62B939469847236860F30706B1
:108150009B6829462046984760F30F26B0B2F8BDC9
:1081600029469847236860F30F269B6839462046C6
:10817000984760F30706F1E713B5C368186803680A
:108180000092DC680B46A04702B010BD70477047F4
:10819000C368186810B103685B6818477047704778
:1081A00073B543686D469942044685E806000E465D
:1081B00004D1BDF8042003899A420FD0E3689DF8EA
:1081C00004201868082105F0A4F9E368314618680E
:1081D00005F0BCF90098AB886060238102B070BDE7
:1081E00010B51421044608F09FFF204610BD73B55A
:1081F000C568044625B9042008F080FFE0600560EA
:10820000E3681B6883B9542008F078FF4FF0FF360D
:1082100094F9123094F9102094F911100096054643
:1082200005F032F9E3681D6002B070BD38B50A2070
:10823000FFF712FB05460B20FFF70EFB0446092053
:10824000FFF70AFB094B0A4A1A60012100225A6013
:108250001A725972DA6098741D745C741846054A73
:108260000549BDE8384008F03ABD00BFD876002087
:1082700048D10300006000209F81020070477047D2
:108280007047704710B5036804461B6B9847A08978
:1082900010BD0079CB881B1A584258417047042002
:1082A00070470000004870478AD2030000487047BA
:1082B00074D2030070B5002388B0CDE902331B23CC
:1082C0008381234B019302238DF80930A1238DF87C
:1082D0000A3001238DF80B3075238DF80C300823FC
:1082E0008DF80D3015238DF80E304FF62573ADF84F
:1082F000103095238DF812308DF8183040F2092394
:10830000ADF81A3040F2912390F8FD10ADF81C3012
:10831000C02390F8FC208DF813108DF81E300D4905
:108320008DF8192000F10E03059101AA07AE1D4634
:10833000144603CCB44218605960224603F1080386
:10834000F6D12188A2789A702846198008B070BDAD
:1083500006ABFF0A090181022DE9F04104468CB009
:10836000002970D127220DF1060011F071FB23685E
:1083700094F804805B6B20469847236807465B6B44
:108380002046984740F20923ADF8043029238DF8A0
:10839000063040F20113ADF80830C0238DF80B30E1
:1083A00009238DF80D3004238DF80E3002238DF84B
:1083B000113042F2091394F82960ADF81630032207
:1083C00040F211132221001294F82A508DF8122045
:1083D000ADF818308DF81C10012305218DF81E0012
:1083E0008DF82160072044F203068DF829204934D6
:1083F0004022ADF822608DF828508DF82A208DF8A3
:108400000F808DF81B308DF81D708DF81F008DF8D2
:1084100020108DF825308DF826008DF827108DF866
:108420002C3001AD0BAE22462B4603CBB34220606D
:1084300061601D4604F10804F6D11B7823701046D4
:108440000CB0BDE8F0810020FAE7000038B5054621
:108450000A4B45F8403B044601F04EF807F03BF864
:10846000284605F0A7FE04F1340005F0A3FE04F150
:108470002C0005F09FFE204638BD00BF2CD2030023
:1084800010B50446FFF7E2FF20464FF4807108F074
:108490004BFE204610BD000010B5034B03600446A0
:1084A00005F006FD204610BD84D1030010B504463A
:1084B000FFF7F2FF2046302108F036FE204610BDBF
:1084C00001F04EB8042910B5044614D090F83C30A1
:1084D00033B990F8291001F04BF8012384F83C30AF
:1084E00094F848303BB994F82A10204601F040F83F
:1084F000012384F8483004F1340005F010FE04F143
:10850000400005F00CFE04F12C00BDE8104005F021
:1085100006BE000038B50C46054640220321204621
:1085200005F0A3FD402285F829000321204605F02F
:10853000A1FD85F82A00204605F03AFD20B98922E0
:108540000249034807F0EAFF38BD00BFA4D1030089
:1085500012D2030010B5044601F002F894F8291075
:10856000204601F031F8012384F83C3004F1340056
:1085700005F0D5FD94F83C302BB1236820465B6CA8
:10858000BDE81040184710BD10B5044600F0E8FFE4
:1085900094F82A10204601F001F80123C4F8B8002D
:1085A00084F8483004F1400005F0B9FD94F84830F3
:1085B0002BB1236820461B6CBDE81040184710BD46
:1085C0002DE9F84399460423137090460379CA882D
:1085D0009A4204460E464AD14D78B5B100257278CC
:1085E000012A0FD1F378092B0CD1B38884F8BC3061
:1085F00033890133C4F8B830BD34C9F800403F2591
:1086000088F800202846BDE8F883CB78062BE6D111
:108610008F883F12212F1BD0222FE0D103681B6BC4
:1086200098470028DAD0236820465B6B98470028DB
:10863000D4D0236820465B6B9847236805461B6BA4
:10864000204698470123C9F8000088F80030C6E7A3
:1086500000F052FF2A46394606F016FB0028BDD02E
:108660000123C9F80000092588F80030B7E7002584
:10867000C8E708B500F040FFBDE8084006F064BA5E
:1086800010B4D0E9013401686210E40701EB020084
:1086900048BF8A585DF8044B48BFD3581847C36891
:1086A0000BB19B6818477047F0B5044687B000F0DF
:1086B00023FF02AD174B94F82910174F03930026A0
:1086C00003234022009505970294049606F066FA6B
:1086D0002846FFF7E4FF00F00FFF104B94F82A1034
:1086E0000095CDE90336402203230597029406F056
:1086F00055FA2846FFF7D3FF402304F1BC0294F853
:108700002A10204600F03DFF012084F8486007B0A1
:10871000F0BD00BF5585020094D103008985020099
:10872000F8B51E460023012583600F4B45710446B2
:1087300040F82C3B174605F0E5FC04F1340005F049
:10874000E1FC04F1400005F0DDFC84F83C5084F8C5
:10875000485084F8FC7084F8FD6000F0CDFE21469E
:1087600000F086FE2046F8BD2CD2030030B58DB057
:1087700004460D4600F0E4FE684605F08DFB0E4B06
:108780000093CDE909456946002504F134008DF8D0
:108790002C5005F0DCFC204600F0DAFE074B2946A1
:1087A0001A68684605F0C2FB68469DF82C40FFF742
:1087B00073FE20460DB030BD84D10300A0D103006C
:1087C00070B504460E4600F0BBFEFFF752FF0546AB
:1087D00020B9204600F0BCFE284670BD94F83C50FD
:1087E000002DF6D04422314604F1740011F032F825
:1087F000636F94F8291004F17802204600F0D7FE48
:10880000002384F83C30E4E710B50446FFF731FF5D
:1088100018B984F82C00012010BDD4E90901FFF734
:10882000CFFF0028F8D0012384F82C30F4E770B58E
:1088300004460E4600F084FEFFF71BFF054620B9F4
:10884000204600F085FE284670BD94F84850002D63
:10885000F6D0442204F1B801304610F0FBFF40236B
:1088600004F1BC0294F82A10204600F08AFE00238E
:1088700084F84830E4E76FF01500704700290CBF1A
:108880006FF0180000207047012070476FF015004E
:1088900070476FF0150070471120704770477047A0
:1088A0007047000068238381004870478CD4030020
:1088B000F0B504468DB0002970D127220DF10600D5
:1088C00011F0C6F8236820465B6B9847236807467B
:1088D0005B6B2046984740F20923ADF8043029230A
:1088E0008DF8063040F20113ADF80830C02342F293
:1088F00009118DF80B3009238DF80D30ADF81610E5
:10890000042340F2111194F829608DF80E300322EF
:1089100002230012ADF81810222194F82A508DF885
:1089200011308DF8122001238DF81C108DF81E00D7
:10893000052107208DF821608DF8292044F20306D7
:10894000402204F58C74ADF822608DF828508DF823
:108950002A208DF813308DF814308DF81B308DF8E7
:108960001D708DF81F008DF820108DF825308DF8C2
:1089700026008DF827108DF82C3001AD0BAE224665
:108980002B4603CBB342206061601D4604F108040E
:10899000F6D11B78237010460DB0F0BD0020FBE728
:1089A0004FF0FF30704700000C4B10B503F1080288
:1089B000026003F16002C0330446C0F80021C0F831
:1089C000043100F5A27008F09DFD04F5807007F0F9
:1089D00075FA2046FFF73AFD204610BDC4D30300C8
:1089E000A0F58070FFF7E0BFA0F58270FFF7DCBF55
:1089F00010B50446FFF7D8FF20464FF4B47108F0D5
:108A000093FB204610BDA0F58270FFF7F1BFA0F5E3
:108A10008070FFF7EDBF10B5044692B000F0A0FDE6
:108A200001A92046FFF703FF9DF8093003F0070373
:108A300084F8413112B010BD4FF0FF307047000094
:108A40007FB5044615461E4609F0C0F8BDF8203033
:108A50000095CDE9016300231A4601462046FFF741
:108A60005FFE002104F5807007F0FEF90A4B03F168
:108A70000802226003F16002C033C4F80431C4F874
:108A8000002104F5A27008F0FDFC0023204684F8C4
:108A9000413104B070BD00BFC4D303002DE9F041E3
:108AA00000F5A27692B0804630460D46144608F096
:108AB000F1FC01238DF80830134B8DF8094013F8B1
:108AC00015308DF80B3012AF092347F8443D0024D0
:108AD000394640468DF80A4003948DF81040FFF760
:108AE00045FE054630B9304608F0F2FC284612B083
:108AF000BDE8F081394640468DF809408DF80B40BD
:108B0000FFF734FE0546EEE792D2030008B5044BAA
:108B100003EB4103C9B25A78FFF7C0FF08BD00BF9D
:108B200092D20300A0F58070FFF7F0BF30B5A1F13D
:108B30001004002500F00F02D3B2092ACCBF37334E
:108B400030338B73CD7302398C424FEA1010F1D160
:108B500030BD21207047000030B5012185B00C20C8
:108B600001F09EFE01210C2001F0DCFE4FF080435D
:108B70000024C3F85C4503F588334FF48032C3F812
:108B80004823C3F80823A3F570436D46C3F8004596
:108B9000C3F80045094B0FCB85E80F00234620465C
:108BA0004FF0FF3155F823200133042BC2F80005A4
:108BB000C2F86015F6D105B030BD00BFF4D4030093
:108BC00038B54FF0805504462146D5F8A800FFF788
:108BD000ADFFD5F8A40004F11001FFF7A7FF202096
:108BE00038BD000072B64FF080434E22C3F81C25FA
:108BF000BFF34F8F0549064BCA6802F4E062134386
:108C0000CB60BFF34F8F00BFFDE700BF00ED00E07A
:108C10000400FA0570B590F8343105461446F3B9EE
:108C20000368DB69984704F47063B3F5407F04F090
:108C3000F0030CBF0721082104F00F02302B0CBFFA
:108C400002230123012A08D0901E42424241A86912
:108C5000BDE87040006804F017BE0222F7E770BD5F
:108C600010B590F8343104462BB9A369186804F0A4
:108C700033FE0028F9D010BD38B590F834510446C1
:108C8000A5B983695BB1186848B10368DB68984788
:108C9000A3691D600421A06908F046FAA5610023BC
:108CA000C4F82431C4F82831C4F82C3138BD13B5C8
:108CB00090F8343104466BBBA369186804F0FBFDDF
:108CC00040B307F0D5FCA3691868036801225B690B
:108CD0000DF107019847D4F82C31B3F5807F16D0F9
:108CE000D4F82C31B3F5807F11D0D4F824319DF81D
:108CF0000720234483F82420D4F824310133DBB245
:108D0000C4F82431D4F82C310133C4F82C3107F0E5
:108D1000C5FCD1E702B010BD7FB590F834310446F0
:108D20000D46002B34D1866926B9042008F0E6F9F7
:108D3000A0610660A369186860BB4FF4807008F0FA
:108D4000DDF92B4694F9212094F92010064605F010
:108D50005BF8A3691E6094F92220531C06D0A06919
:108D600094F923300068032105F05EF8A3691868C0
:108D700070B10A4B03930022094B0193694600949A
:108D8000029204F0BAFD039B13B19B6868469847B2
:108D900004B070BD294604F063FDDCE704D5030090
:108DA000AF8C020010B4D0E9013401686210E4070E
:108DB00001EB020048BF8A585DF8044B48BFD35806
:108DC0001847000008B590F834313BB1012001F09C
:108DD000C7FC0648BDE8084001F044BA82691AB1F0
:108DE0001368003318BF0123184608BDF47E002025
:108DF00070B504460D4601F035FA30B123682946B6
:108E000020461B6CBDE87040184770BDA0F5A070EF
:108E1000EEE7000013B590F834318DF807100446E2
:108E20002BB1C9B20B48FFF7E3FF02B010BDA36935
:108E3000186804F051FD0028F9D0A3691868036888
:108E400001221B690DF107019847013018BF01206D
:108E5000EBE700BFF47E00202DE9F041074688468D
:108E6000164601F0FFF970B10024A6420CD9351B5B
:108E7000402D28BF402508EB04012A46384600F063
:108E8000EDFE2C44F1E704462046BDE8F081A0F554
:108E9000A070E1E770B590F8343105460E461446EF
:108EA0002BB10F48FFF7D8FF0446204670BDAB69D1
:108EB000186804F011FD0028F9D0AB691868D0F8E3
:108EC000FC3001211B6BFC309847AB6918680368C4
:108ED00022461B6931469847013008BF0024E4E769
:108EE000F47E002030B50446C3B001F035F9D4F863
:108EF0005832C3F5807398420546C4BFD4F858521F
:108F0000C5F580752A4601AB02A9204600F090FF06
:108F1000019902AB6D1A00221D44D4F85832B3F502
:108F2000807F19D08A4217D0D4F85832B3F5807FA9
:108F300010D0D4F85032A85C234483F85001D4F800
:108F400050320133DBB2C4F85032D4F85832013316
:108F5000C4F858320132E0E743B030BD38B50446BA
:108F600000F0EEFA2046FFF7BDFFD4F85852204635
:108F700000F0EEFA284638BDA0F5A070EEE700003C
:108F800010B590F8343104462BB10648FFF7E6FFE0
:108F90000446204610BD07F06BFBD4F82C4107F0C7
:108FA0007DFBF6E7F47E002038B5044600F0C8FAF1
:108FB0002046FFF797FFD4F858324BB1D4F854321B
:108FC000234493F85051204600F0C2FA284638BD99
:108FD0004FF0FF35F7E7A0F5A070E5E710B590F882
:108FE000343104462BB10B48FFF7DEFF0446204620
:108FF00010BD07F03DFBD4F82C313BB1D4F828016B
:10900000044494F8244007F049FBF0E74FF0FF34A4
:10901000F9E700BFF47E002038B5044600F090FA6E
:109020002046FFF75FFFD4F85832A3B1D4F854328A
:10903000234493F85051D4F854320133DBB2C4F8CE
:109040005432D4F85832013BC4F85832204600F06C
:109050007FFA284638BD4FF0FF35F7E7A0F5A0703E
:10906000DAE7000010B590F8343104462BB111480E
:10907000FFF7D2FF0446204610BD07F0F9FAD4F8F6
:109080002C319BB1D4F82831234493F82400D4F830
:1090900028310133DBB2C4F82831D4F82C31013B3C
:1090A000C4F82C31044607F0F9FAE4E74FF0FF3436
:1090B000F9E700BFF47E002008B54FF4807200216C
:1090C00010F0C6FC0022C0F80021C0F80421C0F84E
:1090D000082108BD2DE9F843184C194F27600025D9
:1090E0004FF47A78C4E90158202604F12400C4E939
:1090F0000565E561FFF7E0FF0123072084F83431BF
:10910000FEF7AAFB81460820FEF7A6FB0D4CFF23C5
:1091100084F82100C4E9015804F124002760C4E95F
:109120000565E56184F8209084F8223084F82330C6
:10913000FFF7C2FF84F83451BDE8F8832878002097
:1091400018D50300F0760020002070477047704764
:1091500010B5D0F88C452CB1236820465B68984741
:10916000A468F8E710BD38B5D0F88C450D4634B189
:10917000236820469B6829469847A468F7E738BDCE
:1091800000487047E8D5030010B5054B036004465E
:1091900006F0A1F9204606F0B7F9204610BD00BF41
:1091A00068D5030010B50446FFF7EEFF20464FF4E4
:1091B000B26107F0B9FF204610BDF7B5D0F88C4575
:1091C00005460E460023A4B123683146DF680DF141
:1091D000030201AB2046B8479DF80310042903465B
:1091E00005D0019A284605F091FB03B0F0BDA468B4
:1091F000E9E7019A9DF80310F4E770B505460E46BD
:1092000022B10021BDE8704005F07CB9D0F88C4552
:109210005CB1236800221B6931462046984710B193
:1092200001212846EEE7A468F2E72146F9E770B588
:10923000D0F88C450E46054600213CB123683146E6
:1092400020465B699847A4680146F6E72846BDE8D2
:10925000704005F057BAF8B5D0F88C4505460E4673
:1092600017463CB1236820469B693A4631469847E9
:10927000A468F6E728460121BDE8F84005F0A0BA49
:1092800070B5002186B0044605F07EFD0023ADF8E0
:10929000063023898DF810301B0AA188E2888DF8EA
:1092A00011304FF4897540F20123ADF80450ADF848
:1092B0001230022540F20313EF268DF807508DF887
:1092C00009508DF80C100125090A8DF80E20ADF813
:1092D0001430120A04F10A038DF808608DF80A5060
:1092E0008DF80B008DF80D108DF80F2001AD05AE37
:1092F0001C462A4603CAB24218605960154603F15B
:109300000803F6D112881A80204606B070BDF8B561
:10931000002406460D462746304610F071FFA04255
:1093200007D9335D05F8143005EB440301345F7051
:10933000F2E7400000F0FE00F8BD38B5D0F88C55DB
:10934000044635B12B6828461B6A984710B9AD68AA
:10935000F7E7284640F20233A4F8483504F24A51B0
:10936000FFF7D5FF94F84835184484F8480504F50C
:10937000A96038BD40F2023310B500F20A5104462C
:10938000A0F808350548FFF7C2FF94F808351844DF
:1093900084F8080504F5A16010BD00BF44D50300A2
:1093A00040F2023310B50446A0F8C83400F2CA40B7
:1093B000FFF706FC94F8C834184484F8C80404F590
:1093C000996010BD2DE9FF4100238DF80A3090F817
:1093D00088351B4A8DF80830012301928DF8093039
:1093E0003222C0238DF80B308DF80C2001AB0446DF
:1093F00000F54E7803CBC4F83803C8F8041088F899
:109400000820D4F88C6509258EB1336800211B68CB
:1094100030469847478805F54E73093F00F109012A
:109420003A46E01810F016FA3D44B668ECE784F8C6
:109430003A5340462D1284F83B5304B0BDE8F08106
:109440000902FFFF73B504460D46164608F0BEFB41
:109450004FF480730093014633462A46204605F0B8
:109460005BFC024B2360204602B070BD68D5030050
:1094700010B5D0F88C350446A3B9C0F88C1594F813
:1094800088350B7194F888354A79134484F8883507
:109490000B6808465B6A984723891844208101209D
:1094A00010BD13469A68002AFBD19960E7E71FB503
:1094B000044605F02CFC0146684604F071FD40218D
:1094C000684604F0DCFDD4F88C4534B123682046AE
:1094D000DB6969469847A468F7E7684604F067FDCA
:1094E00004B010BD10B50446FFF7E1FF2046BDE80B
:1094F000104005F039BB000010B50D4C2378BFF3C8
:109500005B8FDB0712D4204607F0FCFB70B148F2FA
:10951000450242F686010748FFF794FF204607F010
:1095200013FC054A0549034807F0D9FB014810BD63
:109530006079002064790020006000208991020099
:1095400010B5FFF7D9FF0368BDE810405B6F1847FF
:1095500010B5FFF7D1FF0368BDE810409B6F1847B7
:1095600010B5FFF7C9FF0368BDE81040DB6F18476F
:1095700010B50C46FFF7C0FF2146BDE8104005F0CE
:109580001FBC70B50C4615461E46FFF7B5FF3346A7
:109590002A462146BDE8704005F03ABD10B50C469C
:1095A000FFF7AAFF2146BDE8104005F08FBD70B55A
:1095B0000C4615461E46FFF79FFF33462A462146B6
:1095C000BDE8704005F0C2BD10B50C46FFF794FF32
:1095D0002146BDE8104005F01BBE04F08DBE04F02E
:1095E0004FBE04F079BE704770477047436A93F8E6
:1095F00078007047D0F824017047012070470000C0
:10960000004870473CD703002DE9F04F044697B05F
:109610000F464B22002103A810F01AFAD4F8243187
:10962000267994F80EA094F80C90002B06F1010511
:10963000637B019314BF05200020EDB2002F40F0A2
:10964000978040F20923ADF80C304FF48173ADF8E8
:10965000103080238DF8133032238DF81430082316
:109660008DF815300B2301218DF816308DF825006B
:1096700040F2022342F205404FF0240C4FF0090E55
:1096800004274B22ADF818308DF8211002238DF8F5
:109690002410ADF826004FF0100805208DF82A1090
:1096A0008DF82D108DF82F104FF0030B06218DF83B
:1096B0000E208DF817608DF81A308DF81DE08DF8AA
:1096C0001F608DF822308DF823308DF82B008DF837
:1096D0002CC08DF831C08DF832308DF833108DF8F4
:1096E00034008DF835C08DF81E708DF829808DF806
:1096F0002EB08DF830708DF8361007218DF83910A6
:109700008DF8491044F20201ADF84C1040F20751B7
:10971000ADF850101D349DF804108DF837608DF8A9
:1097200038508DF83A008DF842508DF84A008DF887
:1097300052108DF8533044F20306402340F60225C0
:1097400003A920468DF83BA0ADF83C608DF83F8022
:109750008DF840E08DF84170ADF844508DF84B9095
:109760008DF8543010F076F8204617B0BDE8F08F31
:109770000020FAE738B505460A4B45F8D03B0446C9
:10978000FFF7BAFE05F0A7FE284604F013FD04F12A
:109790007C0004F00FFD04F1700004F00BFD204686
:1097A00038BD00BFFCD6030010B50446FFF7E2FF4A
:1097B00020464FF4947107F0B7FC204610BDFFF728
:1097C000CFBE000010B5034B0360044604F070FBED
:1097D000204610BD30D6030010B50446FFF7F2FF57
:1097E0002046282107F0A0FC204610BD10B5034BF1
:1097F0000360044604F05CFB204610BD00D6030065
:1098000010B50446FFF7F2FF2046342107F08CFC28
:10981000204610BD10B5034B0360044604F048FB1E
:10982000204610BD18D6030010B50446FFF7F2FF1E
:109830002046382107F078FC204610BD38B51C4B77
:109840000D461968C0F80F1099889B794375044636
:10985000A0F8131040220221284604F006FC402202
:1098600020730221284604F005FC40226073032186
:10987000284604F0FAFBA073284604F099FB20B9AF
:10988000AF220C490C4806F049FE002304F1850282
:10989000C4E9322304F1D90284F8783084F88430A2
:1098A00084F8D830C4F81C21C4F8203138BD00BF7A
:1098B0004CD6030088D6030012D203002DE9F341F1
:1098C00004460E461546FFF74BFEF28823799A426E
:1098D00037D1002D35D17778012F2ED1F378202B79
:1098E00027D13289072A24D104F10F0804F1160583
:1098F000294640460FF07CFFD0B1D4F81630C4F8AA
:109900000F30207CE17B638BA4F8133001EB002146
:10991000607CE57C237F009501EB00412568A07CFD
:10992000637501EB0061237D627D6D6B2046A84766
:109930003D46F378212B08BF0125284602B0BDE83B
:10994000F0810025F9E710B50446FFF709FEFFF79F
:10995000D3FD217B05F05CFC04F18503C4F8C8301D
:109960000023C4F8CC3084F8843004F17C0004F087
:10997000D6FB94F884302BB923682046DB6BBDE816
:109980001040184710BD000070B50446FFF7E8FD11
:10999000D4F820512DB140F2DD120F490F4806F0E6
:1099A000BDFD04F1D903C4F81C31FFF7A5FD617BAF
:1099B00005F08CFB84F8D850C4F8200104F1D000E5
:1099C00004F0ADFB94F8D8302BB9236820469B6B8C
:1099D000BDE87040184770BD88D6030058D6030014
:1099E00010B4D0E9013401686210E40701EB020011
:1099F00048BF8A585DF8044B48BFD3581847000049
:109A0000F0B5044687B002ADFFF7AAFD0026FFF7C8
:109A100073FDA17B009503234022059605F0BEF857
:109A20002846FEF73CFEFFF767FD164B217B164FDD
:109A300000954022CDE9033602230597029405F0F4
:109A4000ADF82846FEF72BFEFFF756FD0F4B617B66
:109A500000954022CDE9033602230597029405F0D4
:109A60009DF82846FEF71BFEFFF746FD4023D4F87D
:109A70001C21617B05F0CCFA012084F8D80007B0E6
:109A8000F0BD00BF4799020040D60300899902004B
:109A900038B502234371002383600C4B044640F821
:109AA000703B154604F02EFB04F17C0004F02AFB09
:109AB00004F1D00004F026FBC4F82451FFF71CFD8C
:109AC0002146FFF7D5FC204638BD00BFFCD6030079
:109AD00070B504460D46FFF743FD84F87850002D1D
:109AE0003ED194F8843033B1FFF706FD217B05F0B9
:109AF00067F984F8845004F1850304F17C0600259D
:109B00003046C4F8C830C4F8CC5004F008FB3046E6
:109B100004F0FEFA28B9154915484FF4A27206F070
:109B2000FDFC94F8D83033B1FFF7E6FC217B05F05B
:109B300047F984F8D85004F1D903C4F81C3104F172
:109B4000D00500232846C4F8203104F0E8FA28465E
:109B500004F0DEFA20B94FF4A77204490548DEE7A5
:109B600004F17000BDE8704004F0D9BA88D6030053
:109B700066D6030077D6030010B50446FFF7F0FC65
:109B800020460021BDE81040FFF7A2BF38B50D46C2
:109B90000446FFF7E5FC042D05D020460021BDE872
:109BA0003840FFF795BF38BDF8B5164604460D4658
:109BB0001F46FFF7D5FC04233370EA8823799A42C5
:109BC00025D16978012922D1EA78212A08D0222AD0
:109BD0000BD0202A4FF000001BD13070163401E06A
:109BE00031700F343C600720F8BDAB8813F00103DF
:109BF00008BF19462046FFF76BFFAB8803F001034F
:109C0000E366AB8803F00203A366022333700020EF
:109C1000EAE703233370E7E710B58AB00446FFF79D
:109C20008FFC684604F038F90A4B0093694604F14A
:109C30007000099404F08BFA2046FFF789FC064B6C
:109C400000211A68684604F071F96846FFF7BAFD0A
:109C50000AB010BD30D6030054D6030070B58EB0E4
:109C6000154604460E46FFF76BFC01A804F014F9F4
:109C70000E4B0C9501A9002504F17C000193CDE960
:109C80000A468DF8345004F062FA2046FFF760FC73
:109C9000074B29461A6801A804F048F901A89DF865
:109CA0003440FFF7A3FD20460EB070BD00D6030080
:109CB00054D6030010B50446FFF752FC94F88430E4
:109CC0007BB9D4F8CC3063B1FFF716FCD4F8CC30B4
:109CD000217B04F1850205F039FA10B1012384F8E3
:109CE000843010BD2DE9F8431E460446894690464F
:109CF0009DF82070FFF724FC0023336094F878303F
:109D0000E3B194F88430CBB9D4F8CC50C5F1400518
:109D1000454528BF4546B8F1000F05D02A464946BB
:109D2000D4F8C8000FF096FDD4F8CC302B44C4F81A
:109D3000CC30356017B12046FFF7BCFF2046BDE8A8
:109D4000F843FFF705BCF0B50446406A90F8785038
:109D500085B001262DB984F830503546284605B027
:109D6000F0BD04AB002743F8047DD4E90A12009645
:109D7000FFF7B8FF0399E36AA26A5B1A0A44E36239
:109D8000A26213B984F83060E8E7606AFFF792FFD7
:109D90003D46E3E72DE9F0431C4691B09046064668
:109DA0008946FFF7CDFB002C08BF01AC4FF0000542
:109DB000256002A80CBF0127002704F06DF8104BA6
:109DC000029302A906F1D000CDE90D84CDE90B691B
:109DD0008DF83C708DF83D5004F0B9F93046FFF72E
:109DE000B7FB084B29461A6802A804F09FF802A89E
:109DF0009DF83D40FFF70EFD204611B0BDE8F08311
:109E000018D6030054D6030010B5D0F8203104460C
:109E10006BB990F8D83053B9FFF76EFB402304F1CB
:109E2000D902617B05F0F4F8012384F8D83010BD25
:109E300070B51E4604460023336094F87830084617
:109E4000EBB194F8D830D3B9D4F82051D4F81C1120
:109E5000954228BF15462A460FF0FCFC3560D4F821
:109E60001C31D4F820212B44551BC4F81C31C4F8F4
:109E7000205125B92046BDE87040FFF7C5BF70BD31
:109E800037B50446406A90F878502DB984F83550BB
:109E90000125284603B030BD02AB002243F8042D53
:109EA000D4E90A12FFF7C4FF0199A26A0A44A26228
:109EB000226B13680B441360E36A01995B1A94F8F0
:109EC0003410E36209B9126802B91BB9012384F89E
:109ED0003530DEE7606AFFF797FF0025D9E70368B2
:109EE0009B6C1847A0F5A070F9E770477047704762
:109EF00070470368184710B50446012000F030FC95
:109F000094F8780010BDA0F5A070F4E738B54FF0D4
:109F1000FF320123FF210B480B4D07F08DFA00F0B3
:109F20000DFC044695F878301BB1012000F018FCB8
:109F3000F8E700F003FC001BC728F6D9BDE838405D
:109F4000FEF750BEAC810020F47E002007B502ABC6
:109F5000012243F8041D1946FFF780FE18B101984D
:109F600003B05DF804FB4FF0FF30F9E7A0F5947003
:109F7000FFF7ECBF07B502A9002301F8013D01225C
:109F8000FFF708FF20B19DF8070003B05DF804FB60
:109F90004FF0FF30F9E7A0F59470FFF7EBBF2DE924
:109FA000F8430446884617461E46089DFFF7D8FA30
:109FB000D4F87092B9F1000F04D02B4632463946DE
:109FC0004046C847C4F86082C4F86472C4F8686246
:109FD000C4F86C52BDE8F88370B50646FFF7C0FAC6
:109FE00006F51D740025D6F8B432AB4208D92046D8
:109FF000103454F8043C1BB11B6898470135F2E754
:10A0000070BD0000B0F5966F03D10121014807F043
:10A01000F5B97047AC81002010B4D0E90134016873
:10A020006210E40701EB020048BF8A585DF8044B58
:10A0300048BFD35818470000114B03F1780270B5A0
:10A040000360C0F8282103F1D802E8330446C0F8C1
:10A050002C21C0F8403100F51D7600F52D75AE427B
:10A0600004D0103D2846FEF71AFBF8E704F594707B
:10A0700005F024FF2046FFF77DFB204670BD00BFA2
:10A080007CD70300A0F59470FFF7D6BFA0F59670BB
:10A09000FFF7D2BF10B50446FFF7CEFF20464FF4BE
:10A0A0002E7107F041F8204610BDA0F59670FFF71D
:10A0B000F1BFA0F59470FFF7EDBF0000F7B50446BF
:10A0C00015461F460E4607F081FDBDF8243001936A
:10A0D000BDF8203000932A463B4601462046FFF754
:10A0E000D7FC002104F5947005F0BEFE4FF47A739E
:10A0F000C4F84831174B236003F178020025C4F8F7
:10A10000282103F1D802E833C4F82C21C4F84451C3
:10A11000C4F840314FF48072294604F5A8700FF05E
:10A1200097FCC4F85052C4F88052C4F85452C4F892
:10A130009052C4F85852C4F8A052C4F8B052C4F8AF
:10A14000B452C4F8705216B12046FFF765FD2046A0
:10A1500003B0F0BD7CD7030038B50546FFF7F0F932
:10A1600095F8D8304BB9D5F82041402C28BF402471
:10A170002846FFF7EDF9204638BD0024F8E7000037
:10A1800070B5044686B0FFF7DBF92D4BC4F870328A
:10A190002046FFF7DDF92B4B05932B4B039320460D
:10A1A000002302940493FFF7CBF9D4F8B452032DA3
:10A1B00013D804EB05166B1C06F51D76C4F8B432F3
:10A1C0003046FEF76CFA04EB0515059BC5F88032A6
:10A1D0001BB15B6802A9304698472046FFF7B8F9E3
:10A1E00002A8FEF75CFABC2006F088FF0026174B99
:10A1F0000360054631460661403007F0A5F905F1D8
:10A20000540007F03FF9124B00934FF4807233462D
:10A210002846182107F034FA0E4B05930E4BC4F86C
:10A220005C5202A92846CDE90236049607F034FABA
:10A2300002A8FEF734FA2046FEF754FE06B070BDC1
:10A2400005A0020054D70300E58E020078EE03005B
:10A250006CD7030060D703000D9F0200A0F5A0702B
:10A26000FFF78EBF90F878007047000037B50F4CAD
:10A270000F4D204607F0B8F82A460E49204606F052
:10A280002EFD0D4C42F212030122CDE900320022D4
:10A2900011464FF4F8532046FFF710FF07492A46AE
:10A2A000204603B0BDE8304006F019BDAC81002067
:10A2B0000060002003140300F47E002039A0020097
:10A2C00008B50EF001F92DE9F04F027D012A85B0A5
:10A2D00005460E4640F0908000214FF0FF3B0446BB
:10A2E0000B465F4694F804C048B2BCF1000F75D12C
:10A2F00094F805C0BCF1000F70D1B7F1FF3F1BBF50
:10A3000001335BB201233846934201DD1A4683468E
:10A310000131082904F102045ED1002402EB0B0391
:10A32000A1460293CB4502DC029B4B4559DC95F8D4
:10A33000058095F804A04FEA28170AF00F03FAB237
:10A340005FEA2A1A019208F00F0870D05FFA8AF1CA
:10A35000BAF1090FD4BF303157313046039300F0C2
:10A36000CAF8039B0444092B94BF03F1300103F1A5
:10A3700057013046039300F0BEF80444BAF1000FD1
:10A3800002D1039B03B94FB1092F019FD4BF3037CE
:10A390005737F9B2304600F0AEF80444B8F1090F6F
:10A3A00094BF08F1300108F15701304600F0A3F8DE
:10A3B000B9F1070F044404D03A21304600F09BF86D
:10A3C000044409F10109B9F1080F05F10205A9D109
:10A3D000204605B0BDE8F08F074683E74FF0FF3019
:10A3E00096E7CB45EDD1BBF1000FE5D13A213046E0
:10A3F00000F081F80444DFE700F1100700F11309D1
:10A40000002417F8011B0A22304600F0B1F82E2173
:10A410008046304600F06FF8B94540440444F0D11E
:10A420000A22E97C304600F0A3F80444D0E7002B70
:10A4300099D1A8E710B5054B0360044601751022B9
:10A44000002104300FF004FB204610BD98D8030013
:10A4500070B5074D0560837400259DF810300575B3
:10A4600045608560C56001744274C37470BD00BFEF
:10A4700098D8030007B501210648FFF7DBFF00234A
:10A4800000931A4619460448FFF7E2FF03B05DF84F
:10A4900004FB00BFC0810020D88100202DE9F041DD
:10A4A00006460D4601EB02080C464445A4EB0507A1
:10A4B00007D0336814F8011B1B6830469847002802
:10A4C000F3D13846BDE8F08170B5044608460D4624
:10A4D0000FF096FE23680246294620465B68BDE8D9
:10A4E0007040184709B1FFF7EFBF0846704708B53D
:10A4F000FFF7F8FF08BD03681B6818470149FFF71D
:10A50000E3BF00BFABEB030038B50546FFF7EAFF3A
:10A5100004462846FFF7F2FF204438BD70B58AB0E4
:10A520000D460AA9002301F8043D012A98BF0A221A
:10A53000B5FBF2F402FB1456F3B2092E94BF30338C
:10A540003733DBB2254601F8013D002CF0D1FFF78F
:10A55000C9FF0AB070BD10B42AB903685DF8044B96
:10A560001B68C9B21847D2B25DF8044BFFF7D6BFDB
:10A57000FFF7F1BF2DE9F84F0A9E0746002E10465F
:10A580001946B8BF022614461D460DF097FD28B1A6
:10A590004C493846BDE8F84FFFF796BF25F0004913
:10A5A0004FF0FF32484B204649460DF087FD48B931
:10A5B0004FF0FF32444B204649460DF061FD08B98B
:10A5C0004249E6E74FF06042414B204629460DF0F4
:10A5D0006BFD08B13F49DCE74FF060423E4B20463F
:10A5E00029460DF043FD0028F4D100220023204627
:10A5F00029460DF03BFDD0B12D213846FFF77BFFFA
:10A6000005F1004382461D463449DFF8D8904FF0EB
:10A61000000B00204FF000085FFA8BF3B3420BF100
:10A62000010B06DA42464B460DF0D8FBF4E78246B2
:10A63000EAE702460B46204629460DF0EFF80D46A4
:10A6400004460DF051FD0A22014680463846FFF7C8
:10A6500065FF82449EB340460DF01CFA02460B464D
:10A66000204629460DF0D8F804460D4638461C49C8
:10A67000DFF87090FFF728FF4FF00008824416F1D2
:10A68000FF361CD34B464246204629460DF07CFA45
:10A690000D4604460DF028FD0A2201468346384641
:10A6A000FFF73CFF824458460DF0F4F902460B4692
:10A6B000204629460DF0B0F804460D46DFE7504627
:10A6C000BDE8F88F9CD80300FFFFEF7FA0D8030000
:10A6D000FFFFEF41A4D80300FFFFEFC10000E03F00
:10A6E000A9D0030000002440FFF744BF10B500F0DC
:10A6F0003BF8FEF731FAFEF7FFFEFEF7F3FE4FF4EC
:10A70000E1310648064CFFF73BFDFCF7A9FEFCF7DC
:10A7100063FD002CFBD0AFF30080F8E7F47E00204F
:10A720000000000010B5044603F01BFA204610BDDF
:10A7300010B5044603F015FA204610BD07B50749C9
:10A74000684603F04BFA4FF47A720023DDE900010A
:10A750000DF0EAFC03B05DF804FB00BFF0810020BF
:10A7600006F022BF06F016BE08B5044803F003FA4F
:10A770000348BDE8084003F0FEB900BF088200208E
:10A78000F081002006F020BF38B50A4C0A4D204663
:10A7900003F061FA2046094C09492A4606F09FFA5F
:10A7A000204603F063FA2A4620460649BDE83840B1
:10A7B00006F095BA0882002000600020F081002099
:10A7C00031A7020025A7020070B50446FEF7C1F9C3
:10A7D000844202D34FF0FF3070BDFEF7BAF98442D5
:10A7E000F8D22301104AD656731CF3D00F4D05EB57
:10A7F000C4056C687CB90C2006F080FC0C4A31461C
:10A80000044602F0E7FB0B4B6C601B781BB10A4956
:10A81000204602F0A7FB204602F0B7FB074B1B685F
:10A82000C3F110031841D7E74860002010600020F2
:10A830000000C07FEC7600200460002058620020F9
:10A84000014B1860704700BF5862002008B590F9AE
:10A8500000305A1C04D121220E490F4805F05EFE3B
:10A86000012259B11F2B86BF03F01F030B494FF084
:10A87000A04102FA03F3C1F8083508BD1F2B86BFBB
:10A8800003F01F0305494FF0A04102FA03F3C1F89A
:10A890000C35F2E7A8D803003AD9030000030050B2
:10A8A0002DE9F8431E4D0601AB190446D8688846C9
:10A8B00010B1012106F038FCFEF74BF984424FF04D
:10A8C000010034BF15F906904FF0FF3906F016FC71
:10A8D0000027077049463544044604F0D4FEB8F119
:10A8E000010FEC6011D007D3B8F1020F12D020464F
:10A8F00002F09BFB012103E0204602F096FB394663
:10A900002046BDE8F84302F09DBB2046BDE8F84371
:10A9100002F07EBB204602F088FB0321F0E700BF77
:10A92000486000202DE9F34107468846FEF711F9FB
:10A93000874221D2124C3E01A319DD68ADB9FEF762
:10A9400008F987424FF0010034BFA7574FF0FF3797
:10A9500006F0D4FB34440023054603700122CDF8F1
:10A960000080394604F099FEE5604146284602B071
:10A97000BDE8F041FFF76ABF02B0BDE8F08100BF5B
:10A9800048600020F7B50746FEF7E3F887421FD27C
:10A99000104C3E01A319DD68A5B9FEF7DAF887422D
:10A9A0004FF0010034BFA7574FF0FF3706F0A6FB6A
:10A9B00034440023054603701A460093394604F0D8
:10A9C0006CFEE560284607F049FEC0B203B0F0BD5A
:10A9D0000020FBE7486000201EF0040F0CBFEFF3DF
:10A9E0000880EFF30980816911F8021C002932D137
:10A9F00001B590E80F10E047BDE800508CE8030077
:10AA0000244B93E80600914208BF70471A6041B991
:10AA10001EF0100F10D1204B186820F001001860B4
:10AA20000AE02CE9F00F1EF0100F08BF2CED108A81
:10AA300081F822E0C1F838C0906B92F8221061F0E2
:10AA4000FF0E1EF0100F08BFB0EC108AB0E8F00F38
:10AA500080F309887047114A13689942FAD801B502
:10AA600052F821C00FC8E047BDE80050CCF8000004
:10AA7000704701B501F030FBBDE80140EFF3098CF0
:10AA8000BEE701B501F0ECFABDE80140EFF3098C37
:10AA9000B6E700007062002034EF00E018DA03002F
:10AAA00008B5014630B96FF0030000F0F2F96FF01D
:10AAB000030008BD132001F0B1FE30B94FF0FF30A4
:10AAC00000F0E7F94FF0FF30F3E70020F1E7000076
:10AAD00008B5EFF305832BB9EFF3108313B9EFF348
:10AAE000118333B16FF0050000F0D3F96FF005006A
:10AAF00008BDDFF808C000DFFAE700BFA1AA020026
:10AB0000EFF310832BB9EFF31180003818BF012049
:10AB1000704701207047000038B538B38468056875
:10AB20006CB114F0030302D1C2680F2A13D86FF07E
:10AB30000801002002F0D0F80024204638BDC36888
:10AB4000002BF4D1104BD3F8900088B100F0FCFB3F
:10AB50000446A0B10123A3700023C4E90233F32209
:10AB6000094B2270094A65605A66E6E70546E9E73F
:10AB7000D3F880000122102100F072FBE8E76FF0AB
:10AB8000040102F0A9F8D8E75C62002069AC020079
:10AB900070B5054610B10378F32B07D028466FF047
:10ABA000030102F099F86FF0030070BD836863B190
:10ABB000284601F0EDFB00226FF0020101F086FD56
:10ABC000A8680028F4D101F06BFCAB78002613F0E4
:10ABD00001032E700FD0094BD3F89040294624B1C1
:10ABE000204600F0CBFB3046DFE7D3F8800000F0D2
:10ABF0006CFB2046D9E71846D7E700BF5C6200200F
:10AC0000930710B502F0010422D400F10C0384B1C3
:10AC100053E8000F00EA01028A4203D0BFF32F8FEE
:10AC2000002005E020EA010243E8002404B1EFE738
:10AC300010BD53E8000F084203D1BFF32F8F00204F
:10AC400005E020EA010243E8002404B1F1E7EFE760
:10AC5000C06801EA00031CB18B4218BF0020E7E77F
:10AC6000002B08BF0020E3E7F8B58468054604B967
:10AC7000F8BD94F82320616AA7682846FFF7C0FF53
:10AC8000064638B1204601F08CFB002231462046B2
:10AC900001F01CFD3C46EAE7F8B50D4617461E4696
:10ACA000044620B10378F32B01D1002907DA2046AE
:10ACB0006FF0030102F010F86FF00300F8BDFFF72A
:10ACC0009FFF0028FAD186B13146432001F0A6FD4E
:10ACD00040B1074B5E692046314601F047FB756283
:10ACE00086F823706FF00100E8E76FF00200E5E7F7
:10ACF0005C6200202DE9F041064620B10378F32B79
:10AD000001D1002909DA6FF00301304601F0E4FFB8
:10AD10006FF003052846BDE8F08100F10C0353E80D
:10AD2000002F42EA010543E8005000B1F7E7B4689C
:10AD30001CB9204601F0B4FBECE794F82320616ACB
:10AD4000D4F808803046FFF75BFF074678B194F8E7
:10AD500023309B0756BF656A054620EA0505204655
:10AD600001F01FFB00223946204601F0AFFC4446AB
:10AD7000DEE7000008B50246EFF3058333B100209B
:10AD80006FF0050101F0A8FF002008BDFFF7B8FE35
:10AD90000028F4D1DFF808C0104600DFF5E700BF57
:10ADA00019AB020038B502460D46EFF305834BB1EF
:10ADB00092B96FF00301104601F08EFF6FF00304AB
:10ADC000204638BDFFF79CFE0028F1D1DFF830C0E7
:10ADD000104600DF0446F3E71378F32BE9D1002D8A
:10ADE000E7DB02F10C0353E8001F41EA050443E8E6
:10ADF000004000B1F7E7104601F0B6F9E0E700BF08
:10AE0000F5AC0200F8B504460E4617461D46EFF3B2
:10AE1000058343B18CB920466FF0030101F05CFF5C
:10AE20006FF00300F8BDFFF76BFE0028F2D1DFF8EA
:10AE30002CC020462B4600DFF4E72378F32BEAD121
:10AE4000002DE8D1002EE6DB3A4631462046FFF7DA
:10AE5000D7FE002808BF6FF00200E3E799AC0200BC
:10AE600008B50246EFF305833BB110466FF00501CC
:10AE700001F032FF6FF0050008BDFFF741FE00282A
:10AE8000F3D1DFF808C0104600DFF5E791AB020010
:10AE900070477047EFF310832BB9EFF31180003840
:10AEA00018BF01207047012070470000064BDA6A86
:10AEB0003AB1D0695B6C1BB11B69984228BF184638
:10AEC00070474FF0FF30F5E75C62002070B5464CEC
:10AED000237A012B00F0858033B14FF0FF3001F071
:10AEE000EFFE4FF0FF3070BD404DD5E90B61EB68D0
:10AEF000E3652B8AA4F854303046AB68236400F035
:10AF000097F908B1C4F88060D5E90561304600F0D2
:10AF10008FF908B9D4F880606667D5E907613046D3
:10AF200000F086F908B9D4F88060A667D5E9096110
:10AF3000304600F07DF908B9D4F88060E6676E6BA2
:10AF40003EB1D6E902233168304600F0DCF9C4F89E
:10AF50008460AE6B3EB1D6E902233168304600F022
:10AF6000D2F9C4F88860EE6B3EB1D6E902233168AD
:10AF7000304600F0C8F9C4F88C602E6C3EB1D6E9BA
:10AF800002233168304600F0BEF9C4F890606E6C60
:10AF90003EB1D6E902233168304600F0B4F9C4F876
:10AFA0009460AE6C3EB1D6E902233168304600F0C1
:10AFB000AAF9C4F89860EE6C3EB1D6E90223316874
:10AFC000304600F0A0F9C4F89C602D6D3DB1D5E984
:10AFD00002232968284600F096F9C4F8A0500123FE
:10AFE000237200207FE700BF5C620020A8D9030025
:10AFF00070B5254D2B7A012B07D06FF0060001F0BC
:10B000005FFE4FF0FF34204670BD01F04BFC10B9DD
:10B010004FF0FF30F3E71D4A1D4E1E497068FF23B5
:10B0200082F8223092F82230D26863F0FF03DB43CB
:10B0300014BFB3FA83F32023C3F12003C2F3022227
:10B04000934298BF531CFE2202FA03F30F4ADBB26D
:10B05000D37701F091FE04460028D9D101F0E0FE3B
:10B06000286101F0C9FE0C4801F092F901F010FAD4
:10B070003368DB074CBF0223032383F31488BFF339
:10B080006F8F02232B72BEE75C62002000ED00E0B0
:10B09000A8D9030083AA02007862002010B50F4CE3
:10B0A000237A022B13D101F0AFFE01236372BFF3A9
:10B0B0004F8F0B4A5168C90042BF4FF00061516089
:10B0C000A37204232372BDE81040FFF7EFBE6FF0B8
:10B0D000070001F0F5FD002010BD00BF5C620020FC
:10B0E00000ED00E038B51E4C237A042B054635D11F
:10B0F000FFF7DCFEE26A854203462CBF00F1FF3316
:10B100002B4612B1D069C01AD061626C12B11069BD
:10B11000C01A1061E26813441544E360E3689D427D
:10B1200013D102230020237201F0BAF900236372C5
:10B13000BFF34F8FA27A22B1A3720A4B4FF0805215
:10B140005A60BDE8384001F057BE0133E36001F0BA
:10B1500065F9236D002BE1D09847DFE738BD00BFCC
:10B160005C62002000ED00E0704738B504460D46F3
:10B17000FFF78EFE29462046BDE8384001F062BD4B
:10B1800008B5FFF7F1FFEFF3058333B16FF005006A
:10B1900001F096FD6FF0050008BDFFF77BFE00286B
:10B1A000F4D1DFF808C000DFF6E700BFCDAE020043
:10B1B00008B5EFF3058333B16FF0050001F080FDB2
:10B1C0006FF0050008BDFFF765FE0028F4D1DFF839
:10B1D00008C000DFF6E700BFF1AF020008B5EFF3EB
:10B1E00005832BB16FF0050001F06AFD002008BD5A
:10B1F000FFF750FE0028F5D1DFF804C000DFF6E7C6
:10B200009DB0020008B50246EFF305832BB1BDE8FF
:10B2100008406FF0050001F053BDFFF73BFE00282A
:10B22000F5D1DFF808C0104600DF08BDE5B0020028
:10B2300010B598B140EA010313F007030ED11729A6
:10B240000AD90160083910220C188460426043500A
:10B2500081684A60C3600123184610BD0023FBE7E4
:10B2600070B580B399B132F003032CD10F3121F0C6
:10B27000070600F10804234624685D68E11A25F0FA
:10B280000305491B8E4204D921680029F3D10846E1
:10B2900070BD0168456801443544456051F8040CAF
:10B2A0000839854288BF4D605868324318B95A60E2
:10B2B00003F10801EBE720F0030019181C504A6065
:10B2C00019600831E3E70021E1E710B580B1C1B1B1
:10B2D000A1F1080400F108030022A34209D1596832
:10B2E00021F003044168091B41603AB95A6001200A
:10B2F00010BD19681A4621B10B46EEE71B681360B2
:10B30000F5E70846F4E730B5C0B189B1C2B1CBB1B9
:10B310000024C0E9014202FB01F41D190160C36071
:10B32000436105611846013904D1A41A195101215C
:10B33000084630BD851805602846F4E70146F7E762
:10B340001146F5E71946F3E710B50346A8B100F139
:10B35000140252E8000F10B9BFF32F8F04E0016808
:10B3600042E8001404B1F4E738B1043353E8002F85
:10B37000511C43E8001404B1F8E710BD30B5F0B13A
:10B38000C3688B421BD803698B4218D900F11403A0
:10B390001A680A60BFF35F8F53E8002F0C6894426D
:10B3A000F6D143E8001505B1F2E7043050E8003F5C
:10B3B0005A1E40E8002101B1F8E7002030BD6FF0CF
:10B3C0000300FBE7EFF310832BB9EFF31180003894
:10B3D00018BF0120704701207047D1E9013223B125
:10B3E0009A608A681AB153607047C262F9E70363D2
:10B3F000704700002DE9F84F8846074638B131B153
:10B40000B0FA80F1B8FA88F30B441F2B06DC6FF01A
:10B410000301002001F076FC002470E008F103062F
:10B4200026F003060C3606FB00F9F2B19468D2F858
:10B4300000A0D2E904513CB1A30702D1D368332B59
:10B4400005D86FF00801E4E7D368002BF9D13DB1CE
:10B4500015F0030301D1894556D96FF00901D8E7EA
:10B460000029FAD11CB18B460DE092461546284BB7
:10B47000D3F8A000E0B1FFF767FF0446A8B1002DA4
:10B4800040D14FF0010B224B0022D86F4946FFF705
:10B49000E7FE0546C0B9BBF1000F06D01C4BD3F840
:10B4A000A000214658B1FFF769FF6FF00401B0E733
:10B4B000D3F8800001223421FFF7D2FEDDE7D3F874
:10B4C0008000FFF702FFF0E74A4600210EF0C0FAC5
:10B4D0004BF00203FA22A3700023C4E90983C4E9F4
:10B4E0000B332270A36032462B46C4F804A03946C1
:10B4F00004F10C00FFF707FF054B064A1A672046C8
:10B50000BDE8F88F0123E5E7002CE3D1AFE700BFEA
:10B510005C620020A5B5020010B500F1280353E8D5
:10B52000002F12B9BFF32F8F04E0511E43E800141F
:10B5300004B1F4E70AB9002010BDC06A0122002856
:10B54000F9D0811CD1E84F3FC1E8442F04B1F9E79D
:10B55000DBB2002BF0D08068F1E7036B30B5E3B1CC
:10B56000CD780024DA78AA420FD31A46C1E9012423
:10B570008AB19160A4B16160283050E8003F5A1C44
:10B5800040E8002101B1F8E730BD5A681C46002AA6
:10B59000ECD01346E6E7C162ECE7C1E90133C162D2
:10B5A0000163E9E7F8B5877804468FB3C5680146BB
:10B5B00000272846FFF711FF277005F10C042046ED
:10B5C000FFF7DCFEAB68002B48D02046FFF7BCFE3F
:10B5D0000446002842D0284600F0DAFE3A460646E5
:10B5E000394601F073F8304600F048FF6A6A816816
:10B5F000064604F10C000EF02DF9F9232370A77014
:10B60000F368E37021462846BDE8F840FFF7A5BF80
:10B610008568AB68002BF5D05B78832BF2D1284688
:10B6200000F0B6FE3A460646394601F04FF830467D
:10B6300000F024FF06466A6A806804F10C010EF0EF
:10B6400009F9F3680BB1E2781A70002323702146E0
:10B6500005F10C00BDE8F840FFF790BEF8BD000012
:10B660002DE9F0410C4617469846054618B1037877
:10B67000FA2B00D141B928466FF0030101F042FBDB
:10B680006FF00300BDE8F0818368C3B15B78832B62
:10B6900015D100F07DFE01220646002101F016F8CA
:10B6A000304600F0EBFE06466A6A806821460EF0DE
:10B6B000D1F8F0680028E5D007700020E2E705F136
:10B6C0000C00FFF741FE064670B121466A6A0C3055
:10B6D0000EF0C0F80024F9233370B470F7703146CF
:10B6E0002846FFF73AFFE8E7B8F1000F10D04146CF
:10B6F000932001F093F840B1074B2846596900F0B8
:10B7000035FEEFF30983C3E902476FF00100B9E7A3
:10B710006FF00200B6E700BF5C6200202DE9F04147
:10B720000F4615469846044618B10378FA2B00D107
:10B7300041B920466FF0030101F0E4FA6FF0030015
:10B74000BDE8F081FFF7E8FE064600283AD0014642
:10B750002046FFF742FE626A06F10C0138460EF001
:10B7600079F80DB1F3782B70002504F10C073570D2
:10B7700031463846FFF702FEA3680BB90020DFE729
:10B780003846FFF7E1FD06460028F7D0204600F0D6
:10B79000FFFD29460746012200F098FF384600F0D9
:10B7A0006DFE626A8168074606F10C000EF052F8E1
:10B7B000F9233370B570FB68F37031462046FFF70C
:10B7C000CCFEDBE7B8F1000F10D04146832001F03A
:10B7D00025F840B1074B2046596900F0C7FDEFF34B
:10B7E0000983C3E902756FF00100A9E76FF0020059
:10B7F000A6E700BF5C62002008B5064B08219A6EE0
:10B80000D86EFFF7F7FD044BD864B0FA80F040091A
:10B81000404208BDA8D903005C6200202DE9F04138
:10B8200006460F4690461C46EFF305834BB196B98A
:10B8300030466FF0030101F065FA6FF00300BDE8D8
:10B84000F081FFF7BFFD0028F1D1DFF84CC0304692
:10B85000234600DFF3E73378FA2BE9D1002FE7D056
:10B86000002CE5D106F10C00FFF76EFD054680B116
:10B87000726A39460C300DF0EDFFF9232846C5E910
:10B8800001762B70AC7085F8038000F06DFC2046CB
:10B89000D5E76FF00200D2E761B60200F8B50446C2
:10B8A0000F4616461D46EFF3058343B18CB920467B
:10B8B0006FF0030101F026FA6FF00300F8BDFFF707
:10B8C00081FD0028F2D1DFF848C020462B4600DF7A
:10B8D000F4E72378FA2BEAD1002FE8D0002DE6D147
:10B8E0002046FFF719FE054670B100F10C01626AAF
:10B8F00038460DF0AFFF0EB1EB7833702846EC60A0
:10B9000000F032FC0020D9E76FF00200D6E700BF5C
:10B910001DB70200EFF310832BB9EFF3118000384D
:10B9200018BF0120704701207047000070B5A8B310
:10B930008468D0E900566CB114F0030302D1C268E8
:10B940001B2A1AD86FF00801002001F0CBF900245F
:10B95000204670BDC368002BF4D1124BD3F894007D
:10B9600030B9D3F8800001221C21FFF779FC01E0F7
:10B97000FFF7EAFC044660B10123F522A37000231F
:10B98000C4E90233C4E904332270E67065602376AB
:10B99000DEE76FF0040101F0A5F9D9E70546064698
:10B9A000DBE700BF5C620020284B70B55D69044690
:10B9B0000E4635B96FF0070101F094F94FF0FF30F2
:10B9C00070BD10B10378F52B07D020466FF003014E
:10B9D00001F088F96FF00300F2E7037E53B9C0E984
:10B9E0000353EB6A436103B11861EC6201232376D0
:10B9F0000020E5E7C278D1070DD5C168A9420AD178
:10BA0000FF2B06D16FF00F0101F06CF96FF002000F
:10BA1000D6E70133EBE7002EF8D093070AD5E068AC
:10BA200095F9203090F920209A4203DA80F82030EE
:10BA300000F0C0FC3146532000F0F0FE18B129465A
:10BA4000204600F093FC6FF00100B9E75C62002033
:10BA50002E4B5A6970B5044632B96FF0070101F0F8
:10BA600041F94FF0FF3070BD10B10378F52B07D0CE
:10BA700020466FF0030101F035F96FF00300F2E7A3
:10BA8000037E33B96FF00E0101F02CF96FF0020064
:10BA9000E9E7C168914202D06FF00D01F4E7013B84
:10BAA000DBB2037613BB43690BB1016919612169EC
:10BAB000F1B14B6192F92130D56ADDB982F82030BD
:10BAC000A36883B1204600F063FC06462A46294657
:10BAD00000F0FCFDF36A6361C4E9036503B11C6116
:10BAE0000123F4622376002000F0DAFC0020BAE79C
:10BAF000D362DFE7E978890706D5A96821B191F912
:10BB000020108B42B8BF0B466D69D6E75C620020FF
:10BB100070B5044610B10378F52B07D020466FF0BE
:10BB2000030101F0DFF86FF0030070BD037EBBB1CD
:10BB30006369C0680BB122691A61226902B353615B
:10BB400090F92120C36AEBB990F92030934203D0D9
:10BB500080F8202000F02EFCA068F8B900F0A0FCCE
:10BB6000A078002610F001002670DED0134BD3F829
:10BB700094502146DDB12846FFF700FC3046D4E75B
:10BB8000C362DDE7D978890706D5996821B191F9B3
:10BB900020108A42B8BF0A465B69D4E7204600F00D
:10BBA000F7FB00226FF0020100F090FDD4E7D3F81C
:10BBB0008000FFF78AFB2846B7E700BF5C620020E1
:10BBC0002DE9F0410446002601270CB9BDE8F081BB
:10BBD000E378D4F814801B0712D5A36826767BB1CE
:10BBE000204600F0D5FB00220546114600F06EFD10
:10BBF000EB6A6361C4E9035603B11C61EC6227760A
:10BC00004446E2E710B4C3789B071DD5C06890F99D
:10BC10002120C36ADC78A40709D59C688C4208BF40
:10BC20008C6824B194F92040A242B8BF22465B69D7
:10BC3000002BEFD190F92030934205D080F82020DE
:10BC40005DF8044B00F0B6BB5DF8044B7047000094
:10BC500008B50246EFF3058333B100206FF005010C
:10BC600001F040F8002008BDFFF754FE0028F4D191
:10BC7000DFF808C0104600DFF5E700BF2DB902006D
:10BC800008B50246EFF305833BB110466FF005019E
:10BC900001F028F86FF0050008BDFFF73BFE002813
:10BCA000F3D1DFF808C0104600DFF5E7A9B90200BC
:10BCB00008B50246EFF305833BB110466FF005016E
:10BCC00001F010F86FF0050008BDFFF723FE002813
:10BCD000F3D1DFF808C0104600DFF5E751BA0200E3
:10BCE00008B50246EFF305833BB110466FF005013E
:10BCF00000F0F8FF6FF0050008BDFFF70BFE00280D
:10BD0000F3D1DFF808C0104600DFF5E711BB0200F1
:10BD1000EFF310832BB9EFF31180003818BF012027
:10BD20007047012070470C30D0E85F3F13B9BFF374
:10BD30002F8F04E05A1EC0E8512F01B1F4E798B2EA
:10BD4000003818BF0120704730B500F10C02C189DE
:10BD5000D2E85F3F994202D8BFF32F8F04E05C1C0A
:10BD6000C2E8554F05B1F3E7C0899BB2984294BF32
:10BD70000020012030BD0000F8B50E464FF6FE73DE
:10BD8000411E9942054601D8B04207D26FF0030127
:10BD9000002000F0ADFF00242046F8BD1AB39468DF
:10BDA000176844B114F0030302D1D2680F2A0ED8E9
:10BDB0006FF00801ECE7D368002BF9D1114BD3F8F1
:10BDC000980090B1FFF7C0FA0446A8B10123A37010
:10BDD0000023F622A3600B4B22700B4A6760A681FA
:10BDE000E5819A66D8E71746E8E7D3F88000012294
:10BDF0001021FFF735FAE7E76FF0040100F078FF54
:10BE0000CAE700BF5C6200207DBE020070B5054637
:10BE100010B10378F62B07D028466FF0030100F02D
:10BE200067FF6FF0030070BD836863B1284600F0C0
:10BE3000AFFA00226FF0020100F048FCA868002869
:10BE4000F4D100F02DFBAB78002613F001032E7027
:10BE50000FD0094BD3F89840294624B12046FFF76C
:10BE60008DFA3046DFE7D3F88000FFF72EFA204640
:10BE7000D9E71846D7E700BF5C620020836810B599
:10BE800004465BB1FFF74FFF40B1204600F080FA57
:10BE90000022BDE81040114600F018BC10BD38B5B6
:10BEA000054610B10378F62B07D028466FF0030142
:10BEB00000F01EFF6FF0030038BD84683CB100F055
:10BEC00067FA0122002100F001FC0020F4E7FFF7EF
:10BED0003BFF38B928466FF0100100F009FF6FF002
:10BEE0000200E9E72046E7E738B50D46044610B101
:10BEF0000378F62B07D020466FF0030100F0F8FE20
:10BF00006FF0030038BDFFF70EFF68B975B1294621
:10BF1000632000F083FC20B1064B2046596900F0F5
:10BF200025FA6FF00100EDE70020EBE76FF002006B
:10BF3000E8E700BF5C62002010B50446EFF305831C
:10BF400033B100206FF0050100F0D2FE002010BDDB
:10BF5000FFF7DEFE0028F4D1DFF808C0204600DF3E
:10BF6000F5E700BF79BD020010B502460C46EFF3BD
:10BF7000058343B182B910466FF0030100F0B8FEAB
:10BF80006FF0030010BDFFF7C3FE0028F2D1DFF809
:10BF900024C0104600DFF5E71378F62BEBD1002C18
:10BFA000E9D11046FFF7BFFE002814BF00206FF054
:10BFB0000200E7E7E9BE020010B50446EFF305838F
:10BFC00043B184B920466FF0030100F091FE6FF099
:10BFD000030010BDFFF79CFE0028F2D1DFF830C04F
:10BFE000204600DFF5E72378F62BEBD12046FFF75C
:10BFF000ABFE20B1204600F0B7F80020E9E720466C
:10C000006FF0100100F074FE6FF00200E1E700BF76
:10C010009FBE020008B50246EFF305833BB1104610
:10C020006FF0050100F064FE6FF0050008BDFFF73A
:10C030006FFE0028F3D1DFF808C0104600DFF5E7F7
:10C040000DBE020010B5D0E85F3F5A1C914200D8E7
:10C050000022C0E8542F04B1F5E798B210BD0000EB
:10C0600038B51C4C00F0D6FEE3680133E36000F005
:10C07000D5F9002000F014FA236D03B19847226C23
:10C0800032B3A369E06BD969984202D0E36301B986
:10C09000DA61DA69C2B9237A022B19D1656ABDB1B6
:10C0A000E36B95F9202093F920309A4210D128466D
:10C0B00000F077F9E06B00F08FF9284600F0E8F91E
:10C0C000236CE563EB6103E0013ADA61002AE2D018
:10C0D00038BD00BF5C62002070B5224C04F15605EB
:10C0E00004F15A06B4F85410D5E85F3F13B9BFF312
:10C0F0002F8F04E05A1EC5E8502F00B1F4E79BB221
:10C100005BB33046FFF79EFFE36D53F8200020B38A
:10C110000378F13B082BE5D801A252F823F000BFC9
:10C1200045C10200E5C002004BC10200E5C00200AB
:10C13000E5C002004FC1020053C10200E5C0020089
:10C1400057C10200236E9847CCE7636EFBE7A36EEE
:10C15000F9E7E36EF7E7236FF5E7BDE870400020ED
:10C1600000F09EB95C62002070B5164C0546B4F82C
:10C17000541004F15602D2E85F3F994202D8BFF34F
:10C180002F8F04E0581CC2E8560F06B1F3E79BB2AC
:10C19000994205D829460220BDE87040FEF7E5BF68
:10C1A00004F15800FFF74EFFE36D43F82050637A27
:10C1B00023B9054B4FF080525A6070BD0123A37222
:10C1C000FBE700BF5C62002000ED00E0EFF31083AE
:10C1D0002BB9EFF31180003818BF01207047012000
:10C1E00070470378F12B00D07047C068F9E7000072
:10C1F00010B5C469621CD0E904310CD103B1596196
:10C2000042691AB113610023436101E0074A1363D5
:10C210000023C36110BD1BB1DA6959612244DA61A0
:10C220004269002AEED1014AD362F1E75C62002044
:10C2300010B50A4A90F9201001234370536A1C324A
:10C240001BB193F920408C4205DCC0E902329060BA
:10C2500003B1D86010BD1A469B68F1E75C6200200C
:10C26000014B5869704700BF5C62002010B5002385
:10C27000038083789A07044608D513F0100F016BEA
:10C280000E4B0FD0D3F88400FFF778F8A378DB07C4
:10C2900012D50A4BD3F88800214638B1BDE81040CA
:10C2A000FFF76CB8586FFFF710F8EFE7BDE81040E4
:10C2B000D3F88000FFF709B810BD00BF5C62002012
:10C2C00008B500F025FDDFF810C000DF4FF0FF31AA
:10C2D000002000F0FBFCFEE735C70200C278D20761
:10C2E000034601D4FFF7C2BF042205494270002271
:10C2F000C2604A6B826002B1D0604B63704700BF7E
:10C300005C620020930710B502F0010422D400F112
:10C31000280384B153E8000F00EA01028A4203D0E7
:10C32000BFF32F8F002005E020EA010243E800243C
:10C3300004B1EFE710BD53E8000F084203D1BFF38B
:10C340002F8F002005E020EA010243E8002404B119
:10C35000F1E7EFE7806A01EA00031CB18B4218BFE6
:10C360000020E7E7002B08BF0020E3E710B591F9B4
:10C37000202083681BB193F92040944205DAC1E97B
:10C380000230816003B1D96010BD18469B68F1E7A7
:10C3900083689A68826002B1D0600022DA60184631
:10C3A0007047C2682AB18368936003B1DA600023E2
:10C3B000C360704710B5044664B12378F12B07D0F1
:10C3C000FFF7EFFF01462046BDE81040FFF7CEBF64
:10C3D000E468F1E710BD0000012301464370014805
:10C3E000FFF7C4BF7862002070B50B4D2E7A022E85
:10C3F00010D16C6A74B1696994F9202091F92030E8
:10C400009A4207D12046FFF7CCFF0846FFF7E4FF2A
:10C410006670AC61002070BD5C62002038B5164DBE
:10C42000EC6A44B3E369013BE36123BB6378732B9C
:10C4300006D009D8532B0BD003F0DF03432B0DD1CB
:10C440002046FFF7CEFE09E003F0EF03832BF6E76B
:10C450002046FFF7C6FE2146FFF7D4FB2046FFF734
:10C46000A0FFFFF7B9FF246924B1E369002BDDD0F9
:10C4700000236361EC6238BD5C62002090F82230DA
:10C48000826B13F0100F0CBF602020201044704707
:10C4900002234370014B9861704700BF5C6200202B
:10C4A00070B5124D04462E7A696990B9022E0FD1EB
:10C4B0006C6A6CB194F9202091F920309A4207DD22
:10C4C0002046FFF76EFF0846FFF7B2FE6670AC61CC
:10C4D00070BD022E05D190F9202091F920309A42AA
:10C4E000F1DC2046BDE87040FFF776BF5C620020BB
:10C4F0002DE9F04F85B08046029128B96FF0030115
:10C5000000F0E4FB0024ABE0002A48D0D2E900A30D
:10C51000946896690193D2E904B544B1A10702D1A8
:10C52000D268432A06D86FF008010020E8E7D268F5
:10C53000002AF8D1BBF1000F08D01BF0070F02D181
:10C54000002D40F0A9806FF00A01EEE72EB1721EB7
:10C55000372A03D96FF00B01E7E71826002D40F0CA
:10C560009F804CBB534CD4F88800F0B1FEF7ECFE32
:10C570000446002800F08D800127DFF83891BBF1D8
:10C58000000F32D1D5B94C4AD9F88400556DA8B105
:10C59000FEF7DAFED0B147F01007834621E092465D
:10C5A0009346182615460192DCE7D4F88000012254
:10C5B0004421FEF755FEDBE70027DEE7D9F87400DB
:10C5C0005A462946FEF74CFE0028E6D1002F55D0EA
:10C5D000D9F88820002A47D021461046FEF7CEFE23
:10C5E000002447F00207002C53D040F2F1122280C1
:10C5F0000022C4E90222C4E90422C4E90622C4E9F3
:10C600000922C4E90B2BA5F140025A44C4E90E28C3
:10C61000019B2A4AE37076B2FD21A770C4F804A0FA
:10C6200084F8206084F8216061846563CBF8002081
:10C63000214A1268530723D4A36B342218460021E1
:10C640000DF006FA1E4A1F4BC0E90D284FF080720C
:10C65000C263029A02622046C9F86030FFF720FFE9
:10C66000204605B0BDE8F08F2146D9F8800003923E
:10C67000FEF72BFE039A14469346B2E73C46B0E71A
:10C6800025F00302443ACC210BF104000DF0E0F94F
:10C69000D2E76FF0040148E7002E7FF458AF182668
:10C6A0006A077FF450AF084AA5F1480191427FF62E
:10C6B00058AF48E75C620020A8D90300A52E5AE2D3
:10C6C000C1C20200F1C60200B7FFFF7F38B50546C0
:10C6D0001446FFF7D3FE01602846FFF789FD1CB121
:10C6E000BDE83840FFF7DCBEBDE83840FFF774BE58
:10C6F00010B54378332B04460CD1416A90F82320BF
:10C70000FFF700FE014628B120460022BDE8104098
:10C71000FFF7DCBF10BD10B50446806918B10022D8
:10C720001146FFF7D3FF6378232B02BFA3680022D3
:10C730009A6110BD70B50F4C267A022E18D1636A2B
:10C74000B3B16569E86AFFF73BFA2846FFF7E3FFF4
:10C7500004F11C00FFF71CFE4670A061EFF3098393
:10C76000AB63002363612846BDE87040FFF7B6BDA8
:10C7700070BD00BF5C62002010B5044610B10378A4
:10C78000F12B07D020466FF0030100F09FFA6FF005
:10C79000030010BD437803F00F03022B1ED0032BC0
:10C7A0002BD0012B2ED1FFF7FCFDE06AFFF708FA32
:10C7B0002046FFF7B0FF6178022926D11548FFF720
:10C7C000E7FD154B41709861EFF30982A2630022E7
:10C7D0005A612046FFF782FD0020DAE70E4B1A7AF5
:10C7E000022A02D15B6A002BDFD16FF002012046E2
:10C7F00000F06CFA6FF00200CBE7FFF7D2FDFFF715
:10C80000F7FCD2E76FF00201F2E70020FFF748FEE5
:10C81000DFE700BF786200205C62002038B51F4C63
:10C82000237A022B35D1636A002B34D063694A1C0A
:10C83000587016D1226B002172B94FF0FF30C3E956
:10C840000421D86159B10B611548FFF7A1FD0223FE
:10C850004370A061012038BD11461269ECE72363E3
:10C86000F2E7E26A002012B1D569A9420BD2C3E90E
:10C870000420D96158B10361002AE5D0D069536121
:10C88000401AD061E0E71046491B1269EBE7E3620A
:10C89000F2E70020DFE71846DDE700BF5C6200201A
:10C8A0007862002038B50D4C0D48A26D0D4D002169
:10C8B000FFF71EFE636EA8625BB1984758B9E26D40
:10C8C000E96C206EFFF714FEA864003818BF012041
:10C8D00038BD0120FCE70020FAE700BFA8D903001B
:10C8E0003DCC02005C62002010B50446EFF30583E6
:10C8F00033B100206FF0050100F0E8F9002010BD11
:10C90000FFF764FC0028F4D1DFF808C0204600DF00
:10C91000F5E700BFF1C4020008B5EFF3058313B1DA
:10C92000054B586908BDFFF751FC0028F8D1DFF826
:10C930000CC000DFF6E700BF5C62002061C20200AD
:10C9400008B5EFF305833BB100206FF0050100F05F
:10C95000BDF96FF0050008BDFFF738FC0028F3D1E2
:10C96000DFF804C000DFF6E7E9C3020010B50446B3
:10C9700000F0DAF9EFF305833BB120466FF00501D3
:10C9800000F0A4F96FF0050010BDFFF71FFC0028B0
:10C99000F3D1DFF808C0204600DFF5E779C70200D1
:10C9A00030B50C4D6B6C002213B11C698C420AD956
:10C9B000C0E9022301611BB11C699860641A1C6103
:10C9C0002AB1D06030BD1A46091BDB68ECE7686409
:10C9D000F8E700BF5C6200202DE9F041184D6C6C57
:10C9E00054B323696E69013B23610127236913BB9B
:10C9F000E3680BB1A2689A606B640023E86C1A4686
:10CA000004F11801FEF70AFF58B1D5E90583214664
:10CA100003206B61FEF7A9FB6B6913B9B04508BF32
:10CA20000026E378012B09D161692046FFF7B8FFA2
:10CA30006C6C002CDAD16E61BDE8F0816770F7E7AD
:10CA40005C62002008B5FEF7D7FE18B9034B044A14
:10CA50001A6508BD4FF0FF30FBE700BF5C620020A5
:10CA6000D9C9020007B504464FF0FF3300226946DA
:10CA70002046FEF713FF0028F6D1DDE90030984785
:10CA8000F2E7000008B5094B094A1A60094B9B1AE6
:10CA9000094A1360094B0A4A1A600A4B9B1A0A4A50
:10CAA000136000F051F800F069F800BFD48800204E
:10CAB00000FC032000000420D08800202C0E012060
:10CAC000B816012000FC0320280E01200E4838B5BE
:10CAD0000E4B03600B250E4B45601C24C460836025
